:100000000C943E000C945B000C945B000C945B0021
:100010000C945B000C945B000C945B000C948A00C5
:100020000C945B000C945B000C945B000C945B00E4
:100030000C945B000C945D000C945B000C945B00D2
:100040000C945B000C945B000C945B000C945B00C4
:100050000C945B000C945B000C945B000C945B00B4
:100060000C945B000C945B000C945B000C945B00A4
:100070000C945B000C945B000C945B0011241FBE7D
:10008000CFEFD8E0DEBFCDBF11E0A0E0B1E0E6E603
:10009000F2E002C005900D92A031B107D9F721E03E
:1000A000A0E1B1E001C01D92A531B207E1F70E94C5
:1000B000D3000C9431010C9400001F920F920FB6E4
:1000C0000F9211245F936F937F938F939F93AF93BE
:1000D000BF9380911001882389F080911301909142
:1000E000140101966FEF70E00E941D0190931401BE
:1000F000809313019BB184E089278BB9BF91AF91A5
:100100009F918F917F916F915F910F900FBE0F9094
:100110001F9018951F920F920FB60F9211248F9374
:100120009F934B990AC09091100181E08927809399
:1001300010019BB180E189278BB99F918F910F901E
:100140000FBE0F901F901895549A5C9853985B9A25
:10015000E3E7F0E0808188608083E8E6F0E080817A
:1001600088608083529A5A98089A099A0A9A0B9A38
:100170000C9A0D9A0E9A389A399A08951092850021
:10018000109284008BE197EB909389008093880014
:1001900082E080936F00E1E8F0E088E08083808176
:1001A0008460808308950E94A4002FEF8EE994E27A
:1001B000215080409040E1F700C000000E94BE0046
:1001C00078945C9AEFE7FFE422E1E150F0402040B0
:1001D000E1F700C000005C988FE79FE4E2E1815006
:1001E0009040E040E1F700C0000022E091E028B933
:1001F000E0911301F0911401EF70FF27E050FF4FE1
:10020000808182B9EFE2F5E73197F1F700C0000095
:1002100098B9E0911301F091140184E0F695E79507
:100220008A95E1F7E050FF4F808182B9EFE2F5E770
:100230003197F1F700C00000DACFAA1BBB1B51E1D8
:1002400007C0AA1FBB1FA617B70710F0A61BB70B46
:10025000881F991F5A95A9F780959095BC01CD01EB
:060260000895F894FFCFA1
:100266003F065B4F666D7D077F6F777C395E7971E0
:00000001FF
