:100000000C943E000C945B000C945B000C945B0021
:100010000C945B000C945B000C945B000C945B00F4
:100020000C945B000C945B000C945B000C945B00E4
:100030000C945B000C945B000C945B000C945B00D4
:100040000C945B000C945B000C945B000C945B00C4
:100050000C945B000C945B000C945B000C945B00B4
:100060000C945B000C945B000C945B000C945B00A4
:100070000C945B000C945B000C945B0011241FBE7D
:10008000CFEFD8E0DEBFCDBF12E0A0E0B1E0E8E9FD
:10009000F9E002C005900D92A830B107D9F723E02E
:1000A000A8E0B2E001C01D92A830B207E1F70E94BB
:1000B000BD010C94CA040C940000CF9380E091E041
:1000C0000E9465010E947E0180EA0E948D01C82F76
:1000D0000E94B9011F92CF938BE191E09F938F9380
:1000E00081E08F931F9288E092E09F938F930E940C
:1000F000D20188E092E00E9465018DB79EB7089614
:100100000FB6F8949EBF0FBE8DBF81EF91E0CF91E7
:100110000C946501DF92EF92FF920F931F93CF93A0
:10012000DF9381E491E00E946501C0E0D0E00EE53C
:1001300011E0DD24D39438E0E32E32E0F32E0E9468
:100140007E01CE01880F991F806A0E948D0188234D
:10015000B1F0DF93CF931F930F93DF921F92FF9223
:10016000EF920E94D20188E092E00E9465018DB773
:100170009EB708960FB6F8949EBF0FBE8DBF0E9423
:10018000B9012196C830D105D1F681EF91E0DF9118
:10019000CF911F910F91FF90EF90DF900C9465012C
:1001A00081E891E00E9465010E947E0180EA0E9440
:1001B0008D0180E00E948D0185E50E948D010E94E5
:1001C000B9018FE39CE90197F1F700C000000E949C
:1001D0007E0180EA0E948D0181E00E948D018AEA01
:1001E0000E948D010E94B9018FE39CE90197F1F70C
:1001F00000C0000081EF91E00C9465010F931F9304
:10020000CF93DF9380EA91E00E9465010E947E0116
:1002100080EA0E948D0180E00E948D010E947E0193
:1002200081EA0E948D010E94A501C82F0E94A501AC
:10023000D82F0E94A501182F0E94AF01082F0E94FD
:10024000B9011F920F931F921F931F92DF931F926A
:10025000CF9380EC91E09F938F9381E08F931F92D7
:1002600088E092E09F938F930E94D20188E092E011
:100270000E9465018DB79EB70E960FB6F8949EBF8B
:100280000FBE8DBF81EF91E0DF91CF911F910F9154
:100290000C94650187E690E09093C5008093C400BC
:1002A00088E18093C10086E08093C2000895909118
:1002B000C00095FFFCCF8093C60008958091C000D8
:1002C00087FFFCCF8091C6000895CF93DF93EC01A8
:1002D0008991882319F00E945701FACFDF91CF91BD
:1002E00008959091C00095FFFCCF8093C60080E0F8
:1002F00090E0089588E48093B800089584EA80939C
:10030000BC008091BC0087FFFCCF9091B900987F22
:1003100081E0983009F480E008958093BB0084E880
:100320008093BC008091BC0087FFFCCF8091B90016
:10033000887F883141F09091B900987F81E09832B0
:1003400019F080E0089581E0089584EC8093BC006A
:100350008091BC0087FFFCCF8091BB00089584E8AA
:100360008093BC008091BC0087FFFCCF8091BB00D4
:10037000089584E98093BC0008950E944A010E9478
:100380007A0184EF91E00E94650181EF91E00E9483
:1003900065010E945D000E948A000E94D0000E94B8
:1003A000FE00FFCFAEE0B0E0E8EDF1E00C94A10478
:1003B0000D891E898F89988D26E02C831A830983E5
:1003C00097FF02C080E090E801979E838D83AE0185
:1003D000455E5F4F698D7A8DCE0101960E940202C3
:1003E0004D815E8157FD0AC02F8138854217530722
:1003F0000CF49A01F801E20FF31F10822E96E4E04C
:100400000C94BD04ABE0B0E0E8E0F2E00C9493049F
:100410006C017B018A01FC0117821682838181FFB6
:10042000CCC1CE0101963C01F6019381F70193FD09
:10043000859193FF81917F01882309F4BAC18532A8
:1004400039F493FD859193FF81917F01853229F4E1
:10045000B60190E00E94F903E7CF912C212C312CBA
:10046000FFE1F315D8F08B3279F038F4803279F06F
:100470008332A1F4232D20611DC08D3261F08033C1
:1004800069F4232D216016C0832D8260382EE32D60
:10049000E4603E2E2AC0F32DF8601DC037FC2DC04D
:1004A00020ED280F2A3040F08E32B9F436FC81C19D
:1004B000232D2064322E19C036FE06C08AE0989E95
:1004C000200D1124922E11C0EAE02E9E200D112441
:1004D000222EF32DF0623F2E08C08C3621F4832D9E
:1004E0008068382E02C0883641F4F70193FD85916B
:1004F00093FF81917F018111B3CF982F9F7D9554F8
:10050000933028F40C5F1F4F9FE399830DC083360F
:1005100031F0833771F0833509F059C021C0F801FB
:10052000808189830E5F1F4F88248394912C53010F
:1005300013C02801F2E04F0E511CF801A080B180D9
:1005400036FE03C0692D70E002C06FEF7FEFC5017A
:100550000E94EE034C018201F32DFF773F2E16C05F
:10056000280122E0420E511CF801A080B18036FE25
:1005700003C0692D70E002C06FEF7FEFC5010E94DC
:10058000E3034C01F32DF0683F2E820133FC1BC0C6
:10059000822D90E088169906B0F4B60180E290E0D2
:1005A0000E94F9032A94F4CFF50137FC859137FEB8
:1005B00081915F01B60190E00E94F90321102A9415
:1005C00021E0821A91088114910471F7E8C0843601
:1005D00011F0893641F5F80137FE07C0608171815D
:1005E000828193810C5F1F4F08C060817181072E4B
:1005F000000C880B990B0E5F1F4FF32DFF763F2EDB
:1006000097FF09C090958095709561957F4F8F4FAA
:100610009F4FF0683F2E2AE030E0A3010E9435048E
:10062000882E861845C0853731F4232D2F7EB22EB3
:100630002AE030E025C0932D997FB92E8F36C1F086
:1006400018F4883579F0B5C0803719F0883721F073
:10065000B0C0E92FE061BE2EB4FE0DC0FB2DF460EA
:10066000BF2E09C034FE0AC0292F2660B22E06C054
:1006700028E030E005C020E130E002C020E132E0B7
:10068000F801B7FE07C060817181828193810C5FA0
:100690001F4F06C06081718180E090E00E5F1F4FA8
:1006A000A3010E943504882E8618FB2DFF773F2E6C
:1006B00036FE0DC0232D2E7FA22E891458F434FE51
:1006C0000BC032FC09C0832D8E7EA82E05C0B82C2D
:1006D000A32C03C0B82C01C0B92CA4FE0FC0FE018E
:1006E000E80DF11D8081803321F49A2D997EA92E89
:1006F00009C0A2FE06C0B394B39404C08A2D8678C4
:1007000009F0B394A3FC11C0A0FE06C0B21488F493
:10071000280C922C9B180EC0B21460F4B60180E233
:1007200090E00E94F903B394F7CFB21418F42B1899
:1007300002C0982C212CA4FE10C0B60180E390E0EA
:100740000E94F903A2FE17C0A1FC03C088E790E055
:1007500002C088E590E0B6010CC08A2D867859F079
:10076000A1FE02C08BE201C080E2A7FC8DE2B601CF
:1007700090E00E94F903891438F4B60180E390E018
:100780000E94F9039A94F7CF8A94F301E80DF11DC2
:100790008081B60190E00E94F9038110F5CF2220FC
:1007A00009F442CEB60180E290E00E94F9032A9457
:1007B000F6CFF6018681978102C08FEF9FEF2B96CF
:1007C000E2E10C94AF04FC0105906150704001100F
:1007D000D8F7809590958E0F9F1F0895FC0161506A
:1007E000704001900110D8F7809590958E0F9F1F53
:1007F00008950F931F93CF93DF93FB01238121FD76
:1008000003C08FEF9FEF2CC022FF16C04681578197
:10081000248135814217530744F4A081B1819D01A1
:100820002F5F3F4F318320838C93268137812F5F49
:100830003F4F3783268314C08B01EC01FB010084FA
:10084000F185E02D0995892BE1F6D80116968D9159
:100850009C911797019617969C938E931697CE01AD
:10086000DF91CF911F910F910895FA01AA272830A7
:1008700051F1203181F1E8946F936E7F6E5F7F4F6D
:100880008F4F9F4FAF4FB1E03ED0B4E03CD0670FE9
:10089000781F891F9A1FA11D680F791F8A1F911D3C
:1008A000A11D6A0F711D811D911DA11D20D009F48C
:1008B00068943F912AE0269F11243019305D3193CE
:1008C000DEF6CF010895462F4770405D4193B3E0B7
:1008D0000FD0C9F7F6CF462F4F70405D4A3318F05E
:1008E000495D31FD4052419302D0A9F7EACFB4E00F
:1008F000A6959795879577956795BA95C9F70097C7
:100900006105710508959B01AC010A2E0694579567
:10091000479537952795BA95C9F7620F731F841FBE
:10092000951FA01D08952F923F924F925F926F9254
:100930007F928F929F92AF92BF92CF92DF92EF926F
:10094000FF920F931F93CF93DF93CDB7DEB7CA1BF0
:10095000DB0B0FB6F894DEBF0FBECDBF09942A881B
:10096000398848885F846E847D848C849B84AA84C3
:10097000B984C884DF80EE80FD800C811B81AA8150
:10098000B981CE0FD11D0FB6F894DEBF0FBECDBF1B
:08099000ED010895F894FFCF7A
:10099800537465702031202D204669727374206F5E
:1009A8007065726174696F6E0D0A002020202054F2
:1009B800686520726573706F6E73652066726F6DFF
:1009C800206D656D6F72792069733A2025640D0A70
:1009D80000537465702032202D20436865636B20B6
:1009E80074686520736C617665733A0D0A0020207F
:1009F8002020466F756E6420736C61766520617483
:100A080020616464726573732030782532580D0A4A
:100A180000537465702033202D2057726974652047
:100A2800696E20746865206D656D6F72790D0A00B6
:100A3800537465702034202D2052656164206672DD
:100A48006F6D20746865206D656D6F72790D0A0091
:100A580020202020526561642066726F6D207468C2
:100A680065206D656D6F7279203078253258203099
:100A78007825325820307825325820307825325859
:100A8800200D0A004C61622036202D2053746172BB
:080A9800746564210D0A0000E1
:00000001FF
